{
  "contractName": "BlindAuction",
  "abi": [
    {
      "constant": true,
      "inputs": [
        {
          "name": "",
          "type": "address"
        },
        {
          "name": "",
          "type": "uint256"
        }
      ],
      "name": "bids",
      "outputs": [
        {
          "name": "blindedBid",
          "type": "bytes32"
        },
        {
          "name": "deposit",
          "type": "uint256"
        }
      ],
      "payable": false,
      "stateMutability": "view",
      "type": "function"
    },
    {
      "constant": true,
      "inputs": [],
      "name": "ended",
      "outputs": [
        {
          "name": "",
          "type": "bool"
        }
      ],
      "payable": false,
      "stateMutability": "view",
      "type": "function"
    },
    {
      "constant": true,
      "inputs": [],
      "name": "beneficiary",
      "outputs": [
        {
          "name": "",
          "type": "address"
        }
      ],
      "payable": false,
      "stateMutability": "view",
      "type": "function"
    },
    {
      "constant": true,
      "inputs": [],
      "name": "biddingEnd",
      "outputs": [
        {
          "name": "",
          "type": "uint256"
        }
      ],
      "payable": false,
      "stateMutability": "view",
      "type": "function"
    },
    {
      "constant": true,
      "inputs": [],
      "name": "highestBidder",
      "outputs": [
        {
          "name": "",
          "type": "address"
        }
      ],
      "payable": false,
      "stateMutability": "view",
      "type": "function"
    },
    {
      "constant": true,
      "inputs": [],
      "name": "revealEnd",
      "outputs": [
        {
          "name": "",
          "type": "uint256"
        }
      ],
      "payable": false,
      "stateMutability": "view",
      "type": "function"
    },
    {
      "constant": true,
      "inputs": [],
      "name": "highestBid",
      "outputs": [
        {
          "name": "",
          "type": "uint256"
        }
      ],
      "payable": false,
      "stateMutability": "view",
      "type": "function"
    },
    {
      "inputs": [
        {
          "name": "_biddingTime",
          "type": "uint256"
        },
        {
          "name": "_revealTime",
          "type": "uint256"
        },
        {
          "name": "_beneficiary",
          "type": "address"
        }
      ],
      "payable": false,
      "stateMutability": "nonpayable",
      "type": "constructor"
    },
    {
      "anonymous": false,
      "inputs": [],
      "name": "BiddingEnded",
      "type": "event"
    },
    {
      "anonymous": false,
      "inputs": [
        {
          "indexed": false,
          "name": "ciphertext",
          "type": "bytes32"
        }
      ],
      "name": "Log",
      "type": "event"
    },
    {
      "anonymous": false,
      "inputs": [
        {
          "indexed": false,
          "name": "value",
          "type": "uint256"
        },
        {
          "indexed": false,
          "name": "fake",
          "type": "bool"
        },
        {
          "indexed": false,
          "name": "secret",
          "type": "bytes32"
        }
      ],
      "name": "NoRefund",
      "type": "event"
    },
    {
      "anonymous": false,
      "inputs": [
        {
          "indexed": false,
          "name": "refund",
          "type": "uint256"
        }
      ],
      "name": "Refund",
      "type": "event"
    },
    {
      "anonymous": false,
      "inputs": [
        {
          "indexed": false,
          "name": "winner",
          "type": "address"
        },
        {
          "indexed": false,
          "name": "highestBid",
          "type": "uint256"
        }
      ],
      "name": "AuctionEnded",
      "type": "event"
    },
    {
      "constant": false,
      "inputs": [
        {
          "name": "_blindedBid",
          "type": "bytes32"
        }
      ],
      "name": "bid",
      "outputs": [],
      "payable": true,
      "stateMutability": "payable",
      "type": "function"
    },
    {
      "constant": false,
      "inputs": [
        {
          "name": "_values",
          "type": "uint256[]"
        },
        {
          "name": "_fake",
          "type": "bool[]"
        },
        {
          "name": "_secret",
          "type": "bytes32[]"
        }
      ],
      "name": "reveal",
      "outputs": [],
      "payable": false,
      "stateMutability": "nonpayable",
      "type": "function"
    },
    {
      "constant": false,
      "inputs": [],
      "name": "withdraw",
      "outputs": [],
      "payable": false,
      "stateMutability": "nonpayable",
      "type": "function"
    },
    {
      "constant": false,
      "inputs": [],
      "name": "auctionEnd",
      "outputs": [],
      "payable": false,
      "stateMutability": "nonpayable",
      "type": "function"
    }
  ],
  "bytecode": "0x6060604052341561000f57600080fd5b604051606080610cfa83398101604052808051906020019091908051906020019091908051906020019091905050806000806101000a81548173ffffffffffffffffffffffffffffffffffffffff021916908373ffffffffffffffffffffffffffffffffffffffff1602179055508242016001819055508160015401600281905550505050610c57806100a36000396000f3006060604052600436106100af576000357c0100000000000000000000000000000000000000000000000000000000900463ffffffff16806301495c1c146100b457806312fa6feb146101195780632a24f46c1461014657806338af3eed1461015b5780633ccfd60b146101b0578063423b217f146101c5578063900f080a146101ee57806391f90157146102c8578063957bb1e01461031d578063a6e6647714610339578063d57bde7914610362575b600080fd5b34156100bf57600080fd5b6100f4600480803573ffffffffffffffffffffffffffffffffffffffff1690602001909190803590602001909190505061038b565b6040518083600019166000191681526020018281526020019250505060405180910390f35b341561012457600080fd5b61012c6103cb565b604051808215151515815260200191505060405180910390f35b341561015157600080fd5b6101596103de565b005b341561016657600080fd5b61016e61051b565b604051808273ffffffffffffffffffffffffffffffffffffffff1673ffffffffffffffffffffffffffffffffffffffff16815260200191505060405180910390f35b34156101bb57600080fd5b6101c3610540565b005b34156101d057600080fd5b6101d8610616565b6040518082815260200191505060405180910390f35b34156101f957600080fd5b6102c6600480803590602001908201803590602001908080602002602001604051908101604052809392919081815260200183836020028082843782019150505050505091908035906020019082018035906020019080806020026020016040519081016040528093929190818152602001838360200280828437820191505050505050919080359060200190820180359060200190808060200260200160405190810160405280939291908181526020018383602002808284378201915050505050509190505061061c565b005b34156102d357600080fd5b6102db6109ca565b604051808273ffffffffffffffffffffffffffffffffffffffff1673ffffffffffffffffffffffffffffffffffffffff16815260200191505060405180910390f35b6103376004808035600019169060200190919050506109f0565b005b341561034457600080fd5b61034c610aa1565b6040518082815260200191505060405180910390f35b341561036d57600080fd5b610375610aa7565b6040518082815260200191505060405180910390f35b6004602052816000526040600020818154811015156103a657fe5b9060005260206000209060020201600091509150508060000154908060010154905082565b600360009054906101000a900460ff1681565b60025480421115156103ef57600080fd5b600360009054906101000a900460ff1615151561040b57600080fd5b7fdaec4582d5d9595688c8c98545fdd1c696d41c6aeaeb636737e84ed2f5c00eda600560009054906101000a900473ffffffffffffffffffffffffffffffffffffffff16600654604051808373ffffffffffffffffffffffffffffffffffffffff1673ffffffffffffffffffffffffffffffffffffffff1681526020018281526020019250505060405180910390a16001600360006101000a81548160ff0219169083151502179055506000809054906101000a900473ffffffffffffffffffffffffffffffffffffffff1673ffffffffffffffffffffffffffffffffffffffff166108fc6006549081150290604051600060405180830381858888f19350505050151561051857600080fd5b50565b6000809054906101000a900473ffffffffffffffffffffffffffffffffffffffff1681565b6000600760003373ffffffffffffffffffffffffffffffffffffffff1673ffffffffffffffffffffffffffffffffffffffff1681526020019081526020016000205490506000811115610613576000600760003373ffffffffffffffffffffffffffffffffffffffff1673ffffffffffffffffffffffffffffffffffffffff168152602001908152602001600020819055503373ffffffffffffffffffffffffffffffffffffffff166108fc829081150290604051600060405180830381858888f19350505050151561061257600080fd5b5b50565b60015481565b6000806000806000806000600154804211151561063857600080fd5b600254804210151561064957600080fd5b7f7dc0cb3c887ebbbf64cfffa83490672b1c1d1759f070c97a27022892df1a04f360405160405180910390a1600460003373ffffffffffffffffffffffffffffffffffffffff1673ffffffffffffffffffffffffffffffffffffffff168152602001908152602001600020805490509850888c511415156106c957600080fd5b888b511415156106d857600080fd5b888a511415156106e757600080fd5b600096505b8887101561094557600460003373ffffffffffffffffffffffffffffffffffffffff1673ffffffffffffffffffffffffffffffffffffffff1681526020019081526020016000208781548110151561074057fe5b906000526020600020906002020195508b8781518110151561075e57fe5b906020019060200201518b8881518110151561077657fe5b906020019060200201518b8981518110151561078e57fe5b906020019060200201519450945094507f32d5ab96f608074ecb7a2188938a6154ca0cb72029f98b277aa9284b9d47f5c38585856040518084815260200183151515157f010000000000000000000000000000000000000000000000000000000000000002815260010182600019166000191681526020019350505050604051809103902060405180826000191660001916815260200191505060405180910390a18484846040518084815260200183151515157f0100000000000000000000000000000000000000000000000000000000000000028152600101826000191660001916815260200193505050506040518091039020600019168660000154600019161415156108f0577f1b90bdc78202d37c529ecbaad0754acb61a6ec28c41b28ba684c3d51025465df85858560405180848152602001831515151581526020018260001916600019168152602001935050505060405180910390a1610938565b8560010154880197508315801561090b575084866001015410155b156109265761091a3386610aad565b156109255784880397505b5b60006001028660000181600019169055505b86806001019750506106ec565b3373ffffffffffffffffffffffffffffffffffffffff166108fc899081150290604051600060405180830381858888f19350505050151561098557600080fd5b7f2e1897b0591d764356194f7a795238a87c1987c7a877568e50d829d547c92b97886040518082815260200191505060405180910390a1505050505050505050505050565b600560009054906101000a900473ffffffffffffffffffffffffffffffffffffffff1681565b6001548042101515610a0157600080fd5b600460003373ffffffffffffffffffffffffffffffffffffffff1673ffffffffffffffffffffffffffffffffffffffff1681526020019081526020016000208054806001018281610a529190610bca565b9160005260206000209060020201600060408051908101604052808660001916815260200134815250909190915060008201518160000190600019169055602082015181600101555050505050565b60025481565b60065481565b600060065482111515610ac35760009050610bc4565b6000600560009054906101000a900473ffffffffffffffffffffffffffffffffffffffff1673ffffffffffffffffffffffffffffffffffffffff16141515610b775760065460076000600560009054906101000a900473ffffffffffffffffffffffffffffffffffffffff1673ffffffffffffffffffffffffffffffffffffffff1673ffffffffffffffffffffffffffffffffffffffff168152602001908152602001600020600082825401925050819055505b8160068190555082600560006101000a81548173ffffffffffffffffffffffffffffffffffffffff021916908373ffffffffffffffffffffffffffffffffffffffff160217905550600190505b92915050565b815481835581811511610bf757600202816002028360005260206000209182019101610bf69190610bfc565b5b505050565b610c2891905b80821115610c2457600080820160009055600182016000905550600201610c02565b5090565b905600a165627a7a723058206df09c222f234a2de8e39272b553433f499a7f333d89b453b1494bdb4b0b41950029",
  "source": "pragma solidity ^0.4.11;\n\ncontract BlindAuction {\n  \n  struct Bid {\n    bytes32 blindedBid;\n    uint deposit;\n  }\n  address public beneficiary;\n  uint public biddingEnd;\n  uint public revealEnd;\n  bool public ended;\n  mapping(address => Bid[]) public bids;\n  address public highestBidder;\n  uint public highestBid;\n  mapping(address => uint) pendingReturns;\n\n  event BiddingEnded();\n  event Log(bytes32 ciphertext);\n  event NoRefund(uint value, bool fake, bytes32 secret);\n  event Refund(uint refund);\n  event AuctionEnded(address winner, uint highestBid);\n\n  modifier onlyBefore(uint _time) { require(now < _time); _; }\n  modifier onlyAfter(uint _time) { require(now > _time); _; }\n\n  function BlindAuction(\n\t\t\tuint _biddingTime,\n\t\t\tuint _revealTime,\n\t\t\taddress _beneficiary\n\t\t\t) {\n    beneficiary = _beneficiary;\n    biddingEnd = now + _biddingTime;\n    revealEnd = biddingEnd + _revealTime;\n  }\n\n  function bid(bytes32 _blindedBid)\n    payable\n    onlyBefore(biddingEnd)\n  {\n    bids[msg.sender].push(Bid({\n\tblindedBid: _blindedBid,\n\tdeposit: msg.value\n    }));\n  }\n\n  function reveal(\n\t\t  uint[] _values,\n\t\t  bool[] _fake,\n\t\t  bytes32[] _secret\n\t\t  )\n    onlyAfter(biddingEnd)\n    onlyBefore(revealEnd)\n  {\n    BiddingEnded();\n    uint length = bids[msg.sender].length;\n    require(_values.length == length);\n    require(_fake.length == length);\n    require(_secret.length == length);\n\n    uint refund;\n    for (uint i = 0; i < length; i++) {\n      var bid = bids[msg.sender][i];\n      var (value, fake, secret) = (_values[i], _fake[i], _secret[i]);\n      Log(keccak256(value, fake, secret));\n      if (bid.blindedBid != keccak256(value, fake, secret)) {\n\tNoRefund(value, fake, secret);\n\tcontinue;\n      }\n      refund += bid.deposit;\n      if (!fake && bid.deposit >= value) {\n\tif (placeBid(msg.sender, value))\n\t  refund -= value;\n      }\n      bid.blindedBid = bytes32(0);\n    }\n    msg.sender.transfer(refund);\n    Refund(refund);\n  }\n\n  function placeBid(address bidder, uint value) internal\n    returns (bool success)\n  {\n    if (value <= highestBid) {\n      return false;\n    }\n    if (highestBidder != 0) {\n      pendingReturns[highestBidder] += highestBid;\n    }\n    highestBid = value;\n    highestBidder = bidder;\n    return true;\n  }\n\n  function withdraw() {\n    uint amount = pendingReturns[msg.sender];\n    if (amount > 0) {\n      pendingReturns[msg.sender] = 0;\n      msg.sender.transfer(amount);\n    }\n  }\n\n  function auctionEnd()\n    onlyAfter(revealEnd)\n  {\n    require(!ended);\n    AuctionEnded(highestBidder, highestBid);\n    ended = true;\n    beneficiary.transfer(highestBid);\n  }\n}\n",
  "sourcePath": "/home/emilio/code/sola/contracts/BlindAuction.sol",
  "compiler": {
    "name": "solc",
    "version": "0.4.19+commit.c4cbbb05.Emscripten.clang"
  },
  "schemaVersion": "2.0.0",
  "updatedAt": "2018-04-04T20:42:16.347Z"
}