{
  "contractName": "Lottery",
  "abi": [
    {
      "constant": true,
      "inputs": [
        {
          "name": "",
          "type": "uint256"
        }
      ],
      "name": "participants",
      "outputs": [
        {
          "name": "",
          "type": "address"
        }
      ],
      "payable": false,
      "stateMutability": "view",
      "type": "function"
    },
    {
      "constant": true,
      "inputs": [],
      "name": "isOpen",
      "outputs": [
        {
          "name": "",
          "type": "bool"
        }
      ],
      "payable": false,
      "stateMutability": "view",
      "type": "function"
    },
    {
      "constant": true,
      "inputs": [],
      "name": "owner",
      "outputs": [
        {
          "name": "",
          "type": "address"
        }
      ],
      "payable": false,
      "stateMutability": "view",
      "type": "function"
    },
    {
      "constant": true,
      "inputs": [],
      "name": "winner",
      "outputs": [
        {
          "name": "",
          "type": "address"
        }
      ],
      "payable": false,
      "stateMutability": "view",
      "type": "function"
    },
    {
      "constant": true,
      "inputs": [
        {
          "name": "",
          "type": "address"
        }
      ],
      "name": "deposits",
      "outputs": [
        {
          "name": "",
          "type": "uint256"
        }
      ],
      "payable": false,
      "stateMutability": "view",
      "type": "function"
    },
    {
      "inputs": [],
      "payable": false,
      "stateMutability": "nonpayable",
      "type": "constructor"
    },
    {
      "constant": false,
      "inputs": [],
      "name": "deposit",
      "outputs": [],
      "payable": true,
      "stateMutability": "payable",
      "type": "function"
    },
    {
      "constant": false,
      "inputs": [],
      "name": "close",
      "outputs": [],
      "payable": false,
      "stateMutability": "nonpayable",
      "type": "function"
    },
    {
      "constant": false,
      "inputs": [],
      "name": "getPrize",
      "outputs": [],
      "payable": false,
      "stateMutability": "nonpayable",
      "type": "function"
    },
    {
      "constant": true,
      "inputs": [],
      "name": "getAggregate",
      "outputs": [
        {
          "name": "",
          "type": "uint256[]"
        }
      ],
      "payable": false,
      "stateMutability": "view",
      "type": "function"
    },
    {
      "constant": true,
      "inputs": [],
      "name": "pickSeed",
      "outputs": [
        {
          "name": "",
          "type": "uint256"
        }
      ],
      "payable": false,
      "stateMutability": "view",
      "type": "function"
    },
    {
      "constant": true,
      "inputs": [
        {
          "name": "aggregate",
          "type": "uint256[]"
        },
        {
          "name": "seed",
          "type": "uint256"
        }
      ],
      "name": "searchWinner",
      "outputs": [
        {
          "name": "",
          "type": "address"
        }
      ],
      "payable": false,
      "stateMutability": "view",
      "type": "function"
    },
    {
      "constant": true,
      "inputs": [
        {
          "name": "min",
          "type": "uint256"
        },
        {
          "name": "max",
          "type": "uint256"
        }
      ],
      "name": "getMiddle",
      "outputs": [
        {
          "name": "",
          "type": "uint256"
        }
      ],
      "payable": false,
      "stateMutability": "pure",
      "type": "function"
    }
  ],
  "bytecode": "0x6060604052341561000f57600080fd5b336000806101000a81548173ffffffffffffffffffffffffffffffffffffffff021916908373ffffffffffffffffffffffffffffffffffffffff1602179055506001600360006101000a81548160ff021916908315150217905550610b8f806100796000396000f3006060604052600436106100ba576000357c0100000000000000000000000000000000000000000000000000000000900463ffffffff1680632b1b07db146100bf57806335c1d3491461012957806343d726d61461018c57806347535d7b146101a157806350705cb2146101ce5780638a04851c146101f75780638da5cb5b14610237578063af844f781461028c578063c34f6b0d1461032f578063d0e30db014610344578063dfbf53ae1461034e578063fc7e286d146103a3575b600080fd5b34156100ca57600080fd5b6100d26103f0565b6040518080602001828103825283818151815260200191508051906020019060200280838360005b838110156101155780820151818401526020810190506100fa565b505050509050019250505060405180910390f35b341561013457600080fd5b61014a6004808035906020019091905050610599565b604051808273ffffffffffffffffffffffffffffffffffffffff1673ffffffffffffffffffffffffffffffffffffffff16815260200191505060405180910390f35b341561019757600080fd5b61019f6105d8565b005b34156101ac57600080fd5b6101b46106fb565b604051808215151515815260200191505060405180910390f35b34156101d957600080fd5b6101e161070e565b6040518082815260200191505060405180910390f35b341561020257600080fd5b6102216004808035906020019091908035906020019091905050610756565b6040518082815260200191505060405180910390f35b341561024257600080fd5b61024a610784565b604051808273ffffffffffffffffffffffffffffffffffffffff1673ffffffffffffffffffffffffffffffffffffffff16815260200191505060405180910390f35b341561029757600080fd5b6102ed6004808035906020019082018035906020019080806020026020016040519081016040528093929190818152602001838360200280828437820191505050505050919080359060200190919050506107a9565b604051808273ffffffffffffffffffffffffffffffffffffffff1673ffffffffffffffffffffffffffffffffffffffff16815260200191505060405180910390f35b341561033a57600080fd5b6103426108a8565b005b61034c61099b565b005b341561035957600080fd5b610361610ac0565b604051808273ffffffffffffffffffffffffffffffffffffffff1673ffffffffffffffffffffffffffffffffffffffff16815260200191505060405180910390f35b34156103ae57600080fd5b6103da600480803573ffffffffffffffffffffffffffffffffffffffff16906020019091905050610ae6565b6040518082815260200191505060405180910390f35b6103f8610afe565b610400610afe565b60006001805490506040518059106104155750595b90808252806020026020018201604052509150600260006001600081548110151561043c57fe5b906000526020600020900160009054906101000a900473ffffffffffffffffffffffffffffffffffffffff1673ffffffffffffffffffffffffffffffffffffffff1673ffffffffffffffffffffffffffffffffffffffff168152602001908152602001600020548260008151811015156104b257fe5b9060200190602002018181525050600190505b60018054905081101561059157600260006001838154811015156104e557fe5b906000526020600020900160009054906101000a900473ffffffffffffffffffffffffffffffffffffffff1673ffffffffffffffffffffffffffffffffffffffff1673ffffffffffffffffffffffffffffffffffffffff16815260200190815260200160002054826001830381518110151561055d57fe5b9060200190602002015101828281518110151561057657fe5b906020019060200201818152505080806001019150506104c5565b819250505090565b6001818154811015156105a857fe5b90600052602060002090016000915054906101000a900473ffffffffffffffffffffffffffffffffffffffff1681565b6105e0610afe565b60008060009054906101000a900473ffffffffffffffffffffffffffffffffffffffff1673ffffffffffffffffffffffffffffffffffffffff163373ffffffffffffffffffffffffffffffffffffffff1614151561063d57600080fd5b60003073ffffffffffffffffffffffffffffffffffffffff163111151561066357600080fd5b600360009054906101000a900460ff16151561067e57600080fd5b6000600360006101000a81548160ff0219169083151502179055506106a16103f0565b91506106ab61070e565b90506106b782826107a9565b600360016101000a81548173ffffffffffffffffffffffffffffffffffffffff021916908373ffffffffffffffffffffffffffffffffffffffff1602179055505050565b600360009054906101000a900460ff1681565b600080600080600060014303935083409250826001900491503073ffffffffffffffffffffffffffffffffffffffff16318281151561074957fe5b0690508094505050505090565b60006001838303141561076c576001905061077e565b600283830381151561077a57fe5b0490505b92915050565b6000809054906101000a900473ffffffffffffffffffffffffffffffffffffffff1681565b60008060008060009250600186510391506107c48383610756565b90505b85818151811015156107d557fe5b9060200190602002015185118061081157506000811180156108105750856001820381518110151561080357fe5b9060200190602002015185105b5b1561086257858181518110151561082457fe5b9060200190602002015185111561084b578092506108428383610756565b8101905061085d565b8091506108588383610756565b810390505b6107c7565b60018181548110151561087157fe5b906000526020600020900160009054906101000a900473ffffffffffffffffffffffffffffffffffffffff16935050505092915050565b600360009054906101000a900460ff161515156108c457600080fd5b600360019054906101000a900473ffffffffffffffffffffffffffffffffffffffff1673ffffffffffffffffffffffffffffffffffffffff163373ffffffffffffffffffffffffffffffffffffffff1614151561092057600080fd5b600360019054906101000a900473ffffffffffffffffffffffffffffffffffffffff1673ffffffffffffffffffffffffffffffffffffffff166108fc3073ffffffffffffffffffffffffffffffffffffffff16319081150290604051600060405180830381858888f19350505050151561099957600080fd5b565b600360009054906101000a900460ff1615156109b657600080fd5b6000341115156109c557600080fd5b6000600260003373ffffffffffffffffffffffffffffffffffffffff1673ffffffffffffffffffffffffffffffffffffffff168152602001908152602001600020541415610a715760018054806001018281610a219190610b12565b9160005260206000209001600033909190916101000a81548173ffffffffffffffffffffffffffffffffffffffff021916908373ffffffffffffffffffffffffffffffffffffffff160217905550505b34600260003373ffffffffffffffffffffffffffffffffffffffff1673ffffffffffffffffffffffffffffffffffffffff16815260200190815260200160002060008282540192505081905550565b600360019054906101000a900473ffffffffffffffffffffffffffffffffffffffff1681565b60026020528060005260406000206000915090505481565b602060405190810160405280600081525090565b815481835581811511610b3957818360005260206000209182019101610b389190610b3e565b5b505050565b610b6091905b80821115610b5c576000816000905550600101610b44565b5090565b905600a165627a7a7230582048efd77aa2aef430eafd381d283383e5d21a4e21027f016930a55ac550c73c280029",
  "source": "pragma solidity ^0.4.19;\n\ncontract Lottery {\n\n  address public owner;\n  address[] public participants;\n  mapping(address => uint) public deposits;\n  bool public isOpen;\n  address public winner;\n  \n  function Lottery() public {\n    owner = msg.sender;\n    isOpen = true;\n  }\n\n  function deposit() payable external {\n    require(isOpen);\n    require(msg.value > 0);\n    if (deposits[msg.sender] == 0) {\n      participants.push(msg.sender);\n    }\n    deposits[msg.sender] += msg.value;\n  }\n\n  function close() external {\n    require(msg.sender == owner);\n    require(this.balance > 0);\n    require(isOpen);\n    isOpen = false;\n    uint[] memory aggregate = getAggregate();\n    uint seed = pickSeed();\n    winner = searchWinner(aggregate, seed);\n  }\n\n  function getPrize() external {\n    require(!isOpen);\n    require(msg.sender == winner);\n    winner.transfer(this.balance);\n  }\n\n  function getAggregate() public view returns (uint[]) {\n    uint[] memory aggregate = new uint[](participants.length);\n    aggregate[0] = deposits[participants[0]];\n    for (uint i=1; i<participants.length; i++) {\n      aggregate[i] = aggregate[i-1] + deposits[participants[i]];\n    }\n    return aggregate;\n  }\n\n  function pickSeed() public view returns (uint) {\n    uint blockNumber = block.number - 1;\n    bytes32 blockHash = block.blockhash(blockNumber);\n    uint random = uint(blockHash);\n    uint seed = random % this.balance;\n    return seed;\n  }\n\n  function searchWinner(uint[] aggregate, uint seed)\n    public view returns (address) {\n    uint min = 0;\n    uint max = aggregate.length - 1;\n    uint i = getMiddle(min, max);\n    while (seed > aggregate[i] || (i > 0 && seed < aggregate[i-1])) {\n      if (seed > aggregate[i]) {\n\tmin = i;\n\ti += getMiddle(min, max);\n      }\n      else {\n\tmax = i;\n\ti -= getMiddle(min, max);\n      }\n    }\n    return participants[i];\n  }\n\n  function getMiddle(uint min, uint max) public pure returns (uint) {\n    if (max - min == 1) {\n      return 1;\n    }\n    else {\n      return (max - min) / 2;\n    }\n  }\n\n}\n",
  "sourcePath": "/home/emilio/code/sola/contracts/Lottery.sol",
  "compiler": {
    "name": "solc",
    "version": "0.4.19+commit.c4cbbb05.Emscripten.clang"
  },
  "schemaVersion": "2.0.0",
  "updatedAt": "2018-04-04T20:42:16.642Z"
}