{
  "contractName": "Purchase",
  "abi": [
    {
      "constant": true,
      "inputs": [],
      "name": "seller",
      "outputs": [
        {
          "name": "",
          "type": "address"
        }
      ],
      "payable": false,
      "stateMutability": "view",
      "type": "function"
    },
    {
      "constant": true,
      "inputs": [],
      "name": "value",
      "outputs": [
        {
          "name": "",
          "type": "uint256"
        }
      ],
      "payable": false,
      "stateMutability": "view",
      "type": "function"
    },
    {
      "constant": true,
      "inputs": [],
      "name": "sellerAmount",
      "outputs": [
        {
          "name": "",
          "type": "uint256"
        }
      ],
      "payable": false,
      "stateMutability": "view",
      "type": "function"
    },
    {
      "constant": true,
      "inputs": [],
      "name": "buyerAmount",
      "outputs": [
        {
          "name": "",
          "type": "uint256"
        }
      ],
      "payable": false,
      "stateMutability": "view",
      "type": "function"
    },
    {
      "constant": true,
      "inputs": [],
      "name": "buyer",
      "outputs": [
        {
          "name": "",
          "type": "address"
        }
      ],
      "payable": false,
      "stateMutability": "view",
      "type": "function"
    },
    {
      "constant": true,
      "inputs": [],
      "name": "article",
      "outputs": [
        {
          "name": "",
          "type": "string"
        }
      ],
      "payable": false,
      "stateMutability": "view",
      "type": "function"
    },
    {
      "inputs": [
        {
          "name": "_value",
          "type": "uint256"
        },
        {
          "name": "_article",
          "type": "string"
        }
      ],
      "payable": false,
      "stateMutability": "nonpayable",
      "type": "constructor"
    },
    {
      "anonymous": false,
      "inputs": [],
      "name": "Funded",
      "type": "event"
    },
    {
      "anonymous": false,
      "inputs": [],
      "name": "Accepted",
      "type": "event"
    },
    {
      "anonymous": false,
      "inputs": [],
      "name": "Delivered",
      "type": "event"
    },
    {
      "anonymous": false,
      "inputs": [],
      "name": "Refunded",
      "type": "event"
    },
    {
      "constant": true,
      "inputs": [],
      "name": "getState",
      "outputs": [
        {
          "name": "",
          "type": "string"
        }
      ],
      "payable": false,
      "stateMutability": "view",
      "type": "function"
    },
    {
      "constant": false,
      "inputs": [],
      "name": "fund",
      "outputs": [],
      "payable": true,
      "stateMutability": "payable",
      "type": "function"
    },
    {
      "constant": false,
      "inputs": [],
      "name": "accept",
      "outputs": [],
      "payable": true,
      "stateMutability": "payable",
      "type": "function"
    },
    {
      "constant": false,
      "inputs": [],
      "name": "delivered",
      "outputs": [],
      "payable": false,
      "stateMutability": "nonpayable",
      "type": "function"
    },
    {
      "constant": false,
      "inputs": [],
      "name": "refund",
      "outputs": [],
      "payable": false,
      "stateMutability": "nonpayable",
      "type": "function"
    }
  ],
  "bytecode": "0x6060604052341561000f57600080fd5b604051610e81380380610e818339810160405280805190602001909190805182019190505081600081905550806001908051906020019061005192919061009a565b5033600260006101000a81548173ffffffffffffffffffffffffffffffffffffffff021916908373ffffffffffffffffffffffffffffffffffffffff160217905550505061013f565b828054600181600116156101000203166002900490600052602060002090601f016020900481019282601f106100db57805160ff1916838001178555610109565b82800160010185558215610109579182015b828111156101085782518255916020019190600101906100ed565b5b509050610116919061011a565b5090565b61013c91905b80821115610138576000816000905550600101610120565b5090565b90565b610d338061014e6000396000f3006060604052600436106100af576000357c0100000000000000000000000000000000000000000000000000000000900463ffffffff16806308551a53146100b45780631865c57d146101095780632852b71c146101975780633fa4f245146101a157806347b2c736146101ca578063590e1ae3146101f35780635f0bac56146102085780637150d8ae14610231578063ab1633c214610286578063b60d428814610314578063bbdfbfba1461031e575b600080fd5b34156100bf57600080fd5b6100c7610333565b604051808273ffffffffffffffffffffffffffffffffffffffff1673ffffffffffffffffffffffffffffffffffffffff16815260200191505060405180910390f35b341561011457600080fd5b61011c610359565b6040518080602001828103825283818151815260200191508051906020019080838360005b8381101561015c578082015181840152602081019050610141565b50505050905090810190601f1680156101895780820380516001836020036101000a031916815260200191505b509250505060405180910390f35b61019f6104cd565b005b34156101ac57600080fd5b6101b4610571565b6040518082815260200191505060405180910390f35b34156101d557600080fd5b6101dd610577565b6040518082815260200191505060405180910390f35b34156101fe57600080fd5b61020661057d565b005b341561021357600080fd5b61021b6107e1565b6040518082815260200191505060405180910390f35b341561023c57600080fd5b6102446107e7565b604051808273ffffffffffffffffffffffffffffffffffffffff1673ffffffffffffffffffffffffffffffffffffffff16815260200191505060405180910390f35b341561029157600080fd5b61029961080d565b6040518080602001828103825283818151815260200191508051906020019080838360005b838110156102d95780820151818401526020810190506102be565b50505050905090810190601f1680156103065780820380516001836020036101000a031916815260200191505b509250505060405180910390f35b61031c6108ab565b005b341561032957600080fd5b610331610a75565b005b600260009054906101000a900473ffffffffffffffffffffffffffffffffffffffff1681565b610361610cf3565b600060065414156103a9576040805190810160405280600a81526020017f302e20437265617465640000000000000000000000000000000000000000000081525090506104ca565b600160065414156103f1576040805190810160405280600981526020017f312e2046756e646564000000000000000000000000000000000000000000000081525090506104ca565b60026006541415610439576040805190810160405280600b81526020017f322e20416363657074656400000000000000000000000000000000000000000081525090506104ca565b60036006541415610481576040805190810160405280600c81526020017f332e2044656c697665726564000000000000000000000000000000000000000081525090506104ca565b600460065414156104c9576040805190810160405280600b81526020017f342e20526566756e64656400000000000000000000000000000000000000000081525090506104ca565b5b90565b6001600654811415156104df57600080fd5b600260005402341415156104f257600080fd5b33600360006101000a81548173ffffffffffffffffffffffffffffffffffffffff021916908373ffffffffffffffffffffffffffffffffffffffff160217905550346005819055507f33cf58f9d253f0e978ab033531f83d087d5dd176c31e6419a76fbd9a72c8bb8460405160405180910390a1600260068190555050565b60005481565b60045481565b60036006548114151561058f57600080fd5b7f73656c6c6572000000000000000000000000000000000000000000000000000080816000191614156106b857600260009054906101000a900473ffffffffffffffffffffffffffffffffffffffff1673ffffffffffffffffffffffffffffffffffffffff163373ffffffffffffffffffffffffffffffffffffffff1614151561061857600080fd5b7f8616bbbbad963e4e65b1366f1d75dfb63f9e9704bbbf91fb01bec70849906cf760405160405180910390a16004600681905550600260009054906101000a900473ffffffffffffffffffffffffffffffffffffffff1673ffffffffffffffffffffffffffffffffffffffff166108fc6003600054029081150290604051600060405180830381858888f1935050505015156106b357600080fd5b6107dd565b7f6275796572000000000000000000000000000000000000000000000000000000816000191614156107dc57600360009054906101000a900473ffffffffffffffffffffffffffffffffffffffff1673ffffffffffffffffffffffffffffffffffffffff163373ffffffffffffffffffffffffffffffffffffffff1614151561074057600080fd5b7f8616bbbbad963e4e65b1366f1d75dfb63f9e9704bbbf91fb01bec70849906cf760405160405180910390a16004600681905550600260009054906101000a900473ffffffffffffffffffffffffffffffffffffffff1673ffffffffffffffffffffffffffffffffffffffff166108fc6003600054029081150290604051600060405180830381858888f1935050505015156107db57600080fd5b5b5b5050565b60055481565b600360009054906101000a900473ffffffffffffffffffffffffffffffffffffffff1681565b60018054600181600116156101000203166002900480601f0160208091040260200160405190810160405280929190818152602001828054600181600116156101000203166002900480156108a35780601f10610878576101008083540402835291602001916108a3565b820191906000526020600020905b81548152906001019060200180831161088657829003601f168201915b505050505081565b6000600654811415156108bd57600080fd5b7f73656c6c65720000000000000000000000000000000000000000000000000000808160001916141561099957600260009054906101000a900473ffffffffffffffffffffffffffffffffffffffff1673ffffffffffffffffffffffffffffffffffffffff163373ffffffffffffffffffffffffffffffffffffffff1614151561094657600080fd5b6002600054023414151561095957600080fd5b346004819055507f302777af5d26fab9dd5120c5f1307c65193ebc51daf33244ada4365fab10602c60405160405180910390a16001600681905550610a71565b7f627579657200000000000000000000000000000000000000000000000000000081600019161415610a7057600360009054906101000a900473ffffffffffffffffffffffffffffffffffffffff1673ffffffffffffffffffffffffffffffffffffffff163373ffffffffffffffffffffffffffffffffffffffff16141515610a2157600080fd5b60026000540234141515610a3457600080fd5b346004819055507f302777af5d26fab9dd5120c5f1307c65193ebc51daf33244ada4365fab10602c60405160405180910390a160016006819055505b5b5050565b600260065481141515610a8757600080fd5b7f62757965720000000000000000000000000000000000000000000000000000007f73656c6c6572000000000000000000000000000000000000000000000000000081600019161415610bcd57600260009054906101000a900473ffffffffffffffffffffffffffffffffffffffff1673ffffffffffffffffffffffffffffffffffffffff163373ffffffffffffffffffffffffffffffffffffffff16141515610b3057600080fd5b7f779822f74c5b9c254ba505f56b3198e1c3435161064dcb6a5bff803589dc697360405160405180910390a16003600681905550600360009054906101000a900473ffffffffffffffffffffffffffffffffffffffff1673ffffffffffffffffffffffffffffffffffffffff166108fc6000549081150290604051600060405180830381858888f193505050501515610bc857600080fd5b610cef565b7f627579657200000000000000000000000000000000000000000000000000000081600019161415610cee57600360009054906101000a900473ffffffffffffffffffffffffffffffffffffffff1673ffffffffffffffffffffffffffffffffffffffff163373ffffffffffffffffffffffffffffffffffffffff16141515610c5557600080fd5b7f779822f74c5b9c254ba505f56b3198e1c3435161064dcb6a5bff803589dc697360405160405180910390a16003600681905550600360009054906101000a900473ffffffffffffffffffffffffffffffffffffffff1673ffffffffffffffffffffffffffffffffffffffff166108fc6000549081150290604051600060405180830381858888f193505050501515610ced57600080fd5b5b5b5050565b6020604051908101604052806000815250905600a165627a7a723058207ffd75d0637964072a2a6670372ae8e77dc6ffe6b89d8e7cfd6a17d07a0ccc4f0029",
  "source": "pragma solidity ^0.4.11;\n\ncontract Purchase {\n\n  uint public value;\n  string public article;\n  address public seller;\n  address public buyer;\n  uint public sellerAmount;\n  uint public buyerAmount;\n  uint state;\n  event Funded();\n  event Accepted();\n  event Delivered();\n  event Refunded();\n\n  modifier onlyAt(uint _state) { require(_state == state); _; }\n  modifier onlyBy(bytes32 _role) {\n    if (_role == \"seller\") {\n      require(msg.sender == seller);\n      _;\n    }\n    else if (_role == \"buyer\") {\n      require(msg.sender == buyer);\n      _;\n    }\n  }\n\n  function getState() public constant returns (string) {\n    if (state == 0) return \"0. Created\";\n    if (state == 1) return \"1. Funded\";\n    if (state == 2) return \"2. Accepted\";\n    if (state == 3) return \"3. Delivered\";\n    if (state == 4) return \"4. Refunded\";\n  }\n\n  function Purchase(uint _value, string _article) public {\n    value = _value;\n    article = _article;\n    seller = msg.sender;\n  }\n\n  function fund() public payable onlyAt(0) onlyBy(\"seller\") {\n    require(msg.value == value * 2);\n    sellerAmount = msg.value;\n    Funded();\n    state = 1;\n  }\n\n  function accept() public payable onlyAt(1) {\n    require(msg.value == value * 2);\n    buyer = msg.sender;\n    buyerAmount = msg.value;\n    Accepted();\n    state = 2;\n  }\n\n  function delivered() public onlyAt(2) onlyBy(\"buyer\") {\n    Delivered();\n    state = 3;\n    buyer.transfer(value);\n  }\n\n  function refund() public onlyAt(3) onlyBy(\"seller\") {\n    Refunded();\n    state = 4;\n    seller.transfer(value * 3);\n  }\n}\n",
  "sourcePath": "/home/emilio/code/sola/contracts/Purchase.sol",
  "compiler": {
    "name": "solc",
    "version": "0.4.19+commit.c4cbbb05.Emscripten.clang"
  },
  "schemaVersion": "2.0.0",
  "updatedAt": "2018-04-04T20:42:16.545Z"
}