{
  "contractName": "SimpleAuction",
  "abi": [
    {
      "constant": true,
      "inputs": [],
      "name": "beneficiary",
      "outputs": [
        {
          "name": "",
          "type": "address"
        }
      ],
      "payable": false,
      "stateMutability": "view",
      "type": "function"
    },
    {
      "constant": true,
      "inputs": [],
      "name": "highestBidder",
      "outputs": [
        {
          "name": "",
          "type": "address"
        }
      ],
      "payable": false,
      "stateMutability": "view",
      "type": "function"
    },
    {
      "constant": true,
      "inputs": [],
      "name": "highestBid",
      "outputs": [
        {
          "name": "",
          "type": "uint256"
        }
      ],
      "payable": false,
      "stateMutability": "view",
      "type": "function"
    },
    {
      "inputs": [
        {
          "name": "_biddingTime",
          "type": "uint256"
        },
        {
          "name": "_beneficiary",
          "type": "address"
        }
      ],
      "payable": false,
      "stateMutability": "nonpayable",
      "type": "constructor"
    },
    {
      "anonymous": false,
      "inputs": [
        {
          "indexed": false,
          "name": "bidder",
          "type": "address"
        },
        {
          "indexed": false,
          "name": "amount",
          "type": "uint256"
        }
      ],
      "name": "HighestBidIncreased",
      "type": "event"
    },
    {
      "anonymous": false,
      "inputs": [
        {
          "indexed": false,
          "name": "winner",
          "type": "address"
        },
        {
          "indexed": false,
          "name": "amount",
          "type": "uint256"
        }
      ],
      "name": "AuctionEnded",
      "type": "event"
    },
    {
      "constant": false,
      "inputs": [],
      "name": "bid",
      "outputs": [],
      "payable": true,
      "stateMutability": "payable",
      "type": "function"
    },
    {
      "constant": false,
      "inputs": [],
      "name": "withdraw",
      "outputs": [
        {
          "name": "",
          "type": "bool"
        }
      ],
      "payable": false,
      "stateMutability": "nonpayable",
      "type": "function"
    },
    {
      "constant": false,
      "inputs": [],
      "name": "auctionEnd",
      "outputs": [],
      "payable": false,
      "stateMutability": "nonpayable",
      "type": "function"
    }
  ],
  "bytecode": "0x6060604052341561000f57600080fd5b60405160408061069283398101604052808051906020019091908051906020019091905050806000806101000a81548173ffffffffffffffffffffffffffffffffffffffff021916908373ffffffffffffffffffffffffffffffffffffffff16021790555081420160018190555050506106048061008e6000396000f300606060405260043610610078576000357c0100000000000000000000000000000000000000000000000000000000900463ffffffff1680631998aeef1461007d5780632a24f46c1461008757806338af3eed1461009c5780633ccfd60b146100f157806391f901571461011e578063d57bde7914610173575b600080fd5b61008561019c565b005b341561009257600080fd5b61009a610326565b005b34156100a757600080fd5b6100af610462565b604051808273ffffffffffffffffffffffffffffffffffffffff1673ffffffffffffffffffffffffffffffffffffffff16815260200191505060405180910390f35b34156100fc57600080fd5b610104610487565b604051808215151515815260200191505060405180910390f35b341561012957600080fd5b6101316105ac565b604051808273ffffffffffffffffffffffffffffffffffffffff1673ffffffffffffffffffffffffffffffffffffffff16815260200191505060405180910390f35b341561017e57600080fd5b6101866105d2565b6040518082815260200191505060405180910390f35b60015442111515156101ad57600080fd5b600354341115156101bd57600080fd5b6000600260009054906101000a900473ffffffffffffffffffffffffffffffffffffffff1673ffffffffffffffffffffffffffffffffffffffff161415156102715760035460046000600260009054906101000a900473ffffffffffffffffffffffffffffffffffffffff1673ffffffffffffffffffffffffffffffffffffffff1673ffffffffffffffffffffffffffffffffffffffff168152602001908152602001600020600082825401925050819055505b33600260006101000a81548173ffffffffffffffffffffffffffffffffffffffff021916908373ffffffffffffffffffffffffffffffffffffffff160217905550346003819055507ff4757a49b326036464bec6fe419a4ae38c8a02ce3e68bf0809674f6aab8ad3003334604051808373ffffffffffffffffffffffffffffffffffffffff1673ffffffffffffffffffffffffffffffffffffffff1681526020018281526020019250505060405180910390a1565b600154421015151561033757600080fd5b600560009054906101000a900460ff1615151561035357600080fd5b6001600560006101000a81548160ff0219169083151502179055507fdaec4582d5d9595688c8c98545fdd1c696d41c6aeaeb636737e84ed2f5c00eda600260009054906101000a900473ffffffffffffffffffffffffffffffffffffffff16600354604051808373ffffffffffffffffffffffffffffffffffffffff1673ffffffffffffffffffffffffffffffffffffffff1681526020018281526020019250505060405180910390a16000809054906101000a900473ffffffffffffffffffffffffffffffffffffffff1673ffffffffffffffffffffffffffffffffffffffff166108fc6003549081150290604051600060405180830381858888f19350505050151561046057600080fd5b565b6000809054906101000a900473ffffffffffffffffffffffffffffffffffffffff1681565b600080600460003373ffffffffffffffffffffffffffffffffffffffff1673ffffffffffffffffffffffffffffffffffffffff16815260200190815260200160002054905060008111156105a3576000600460003373ffffffffffffffffffffffffffffffffffffffff1673ffffffffffffffffffffffffffffffffffffffff168152602001908152602001600020819055503373ffffffffffffffffffffffffffffffffffffffff166108fc829081150290604051600060405180830381858888f1935050505015156105a25780600460003373ffffffffffffffffffffffffffffffffffffffff1673ffffffffffffffffffffffffffffffffffffffff16815260200190815260200160002081905550600091506105a8565b5b600191505b5090565b600260009054906101000a900473ffffffffffffffffffffffffffffffffffffffff1681565b600354815600a165627a7a72305820c74d2dc8879aa64345750904daee44273006f836f5f187bdc2752de83c1db9b00029",
  "source": "pragma solidity ^0.4.11;\n\ncontract SimpleAuction {\n  \n  address public beneficiary;\n  uint public auctionEnd;\n  address public highestBidder;\n  uint public highestBid;\n  mapping(address => uint) pendingReturns;\n  bool ended;\n\n  event HighestBidIncreased(address bidder, uint amount);\n  event AuctionEnded(address winner, uint amount);\n\n  /// Create a simple auction with `_biddingTime`\n  /// seconds bidding time on behalf of the\n  /// beneficiary address `_beneficiary`.\n  function SimpleAuction(\n\t\t\t uint _biddingTime,\n\t\t\t address _beneficiary\n\t\t\t ) {\n    beneficiary = _beneficiary;\n    auctionEnd = now + _biddingTime;\n  }\n\n  /// Bid on the auction with the value sent\n  /// together with this transaction.\n  /// The value will only be refunded if the\n  /// auction is not won.\n  function bid() payable {\n    require(now <= auctionEnd);\n    require(msg.value > highestBid);\n    if (highestBidder != 0) {\n      pendingReturns[highestBidder] += highestBid;\n    }\n    highestBidder = msg.sender;\n    highestBid = msg.value;\n    HighestBidIncreased(msg.sender, msg.value);\n  }\n\n  /// Withdraw a bid that was overbid.\n  function withdraw() returns (bool) {\n    uint amount = pendingReturns[msg.sender];\n    if (amount > 0) {\n      pendingReturns[msg.sender] = 0;\n      if (!msg.sender.send(amount)) {\n\tpendingReturns[msg.sender] = amount;\n\treturn false;\n      }\n    }\n    return true;\n  }\n\n  /// End the auction and send the highest bid\n  /// to the beneficiary.\n  function auctionEnd() {\n    \n    // 1. Conditions\n    require(now >= auctionEnd);\n    require(!ended);\n\n    // 2. Effects\n    ended = true;\n    AuctionEnded(highestBidder, highestBid);\n\n    // 3. Interaction\n    beneficiary.transfer(highestBid);\n\n  }\n}\n",
  "sourcePath": "/home/emilio/code/sola/contracts/SimpleAuction.sol",
  "compiler": {
    "name": "solc",
    "version": "0.4.19+commit.c4cbbb05.Emscripten.clang"
  },
  "schemaVersion": "2.0.0",
  "updatedAt": "2018-03-19T22:09:46.397Z"
}